{
  "contractName": "freight",
  "abi": [
    {
      "constant": true,
      "inputs": [],
      "name": "deliveryCount",
      "outputs": [
        {
          "name": "",
          "type": "uint256"
        }
      ],
      "payable": false,
      "stateMutability": "view",
      "type": "function",
      "signature": "0x5b77b6a6"
    },
    {
      "constant": true,
      "inputs": [
        {
          "name": "",
          "type": "uint256"
        }
      ],
      "name": "orders",
      "outputs": [
        {
          "name": "id",
          "type": "uint256"
        },
        {
          "name": "name",
          "type": "string"
        },
        {
          "name": "Address",
          "type": "string"
        },
        {
          "name": "number",
          "type": "string"
        },
        {
          "name": "completed",
          "type": "bool"
        }
      ],
      "payable": false,
      "stateMutability": "view",
      "type": "function",
      "signature": "0xa85c38ef"
    },
    {
      "inputs": [],
      "payable": false,
      "stateMutability": "nonpayable",
      "type": "constructor",
      "signature": "constructor"
    },
    {
      "anonymous": false,
      "inputs": [
        {
          "indexed": false,
          "name": "id",
          "type": "uint256"
        },
        {
          "indexed": false,
          "name": "name",
          "type": "string"
        },
        {
          "indexed": false,
          "name": "Address",
          "type": "string"
        },
        {
          "indexed": false,
          "name": "number",
          "type": "string"
        },
        {
          "indexed": false,
          "name": "completed",
          "type": "bool"
        }
      ],
      "name": "orderCreated",
      "type": "event",
      "signature": "0xe508fabf6d689979143d8d68822a24121c6478be7fed805046e09d1c38a50382"
    },
    {
      "anonymous": false,
      "inputs": [
        {
          "indexed": false,
          "name": "id",
          "type": "uint256"
        },
        {
          "indexed": false,
          "name": "completed",
          "type": "bool"
        }
      ],
      "name": "orderCompleted",
      "type": "event",
      "signature": "0x676f8a0f5b322c2e0c3fb0db51a5fe52c27bbe84724b83e68acb5c0280e16831"
    },
    {
      "constant": false,
      "inputs": [
        {
          "name": "_name",
          "type": "string"
        },
        {
          "name": "_address",
          "type": "string"
        },
        {
          "name": "_number",
          "type": "string"
        }
      ],
      "name": "AddOrders",
      "outputs": [],
      "payable": false,
      "stateMutability": "nonpayable",
      "type": "function",
      "signature": "0x9f3d6529"
    },
    {
      "constant": false,
      "inputs": [
        {
          "name": "_id",
          "type": "uint256"
        }
      ],
      "name": "toggleCompleted",
      "outputs": [],
      "payable": false,
      "stateMutability": "nonpayable",
      "type": "function",
      "signature": "0x455f5024"
    }
  ],
  "bytecode": "0x6080604052600080553480156200001557600080fd5b50620000f86040805190810160405280601881526020017f6465616b696e20556e69766572736974792069732e2e2e2e0000000000000000815250606060405190810160405280602181526020017f32323120427572776f6f64204877792c20427572776f6f64205649432033313281526020017f35000000000000000000000000000000000000000000000000000000000000008152506040805190810160405280600e81526020017f2830332920393234342036313030000000000000000000000000000000000000815250620000fe640100000000026401000000009004565b62000424565b600080815480929190600101919050555060a06040519081016040528060005481526020018481526020018381526020018281526020016000151581525060016000805481526020019081526020016000206000820151816000015560208201518160010190805190602001906200017892919062000375565b5060408201518160020190805190602001906200019792919062000375565b506060820151816003019080519060200190620001b692919062000375565b5060808201518160040160006101000a81548160ff0219169083151502179055509050507fe508fabf6d689979143d8d68822a24121c6478be7fed805046e09d1c38a5038260005484848460006040518086815260200180602001806020018060200185151515158152602001848103845288818151815260200191508051906020019080838360005b838110156200025d57808201518184015260208101905062000240565b50505050905090810190601f1680156200028b5780820380516001836020036101000a031916815260200191505b50848103835287818151815260200191508051906020019080838360005b83811015620002c6578082015181840152602081019050620002a9565b50505050905090810190601f168015620002f45780820380516001836020036101000a031916815260200191505b50848103825286818151815260200191508051906020019080838360005b838110156200032f57808201518184015260208101905062000312565b50505050905090810190601f1680156200035d5780820380516001836020036101000a031916815260200191505b509850505050505050505060405180910390a1505050565b828054600181600116156101000203166002900490600052602060002090601f016020900481019282601f10620003b857805160ff1916838001178555620003e9565b82800160010185558215620003e9579182015b82811115620003e8578251825591602001919060010190620003cb565b5b509050620003f89190620003fc565b5090565b6200042191905b808211156200041d57600081600090555060010162000403565b5090565b90565b610d0980620004346000396000f3fe608060405260043610610062576000357c0100000000000000000000000000000000000000000000000000000000900463ffffffff168063455f5024146100675780635b77b6a6146100a25780639f3d6529146100cd578063a85c38ef146102c3575b600080fd5b34801561007357600080fd5b506100a06004803603602081101561008a57600080fd5b8101908080359060200190929190505050610461565b005b3480156100ae57600080fd5b506100b761078d565b6040518082815260200191505060405180910390f35b3480156100d957600080fd5b506102c1600480360360608110156100f057600080fd5b810190808035906020019064010000000081111561010d57600080fd5b82018360208201111561011f57600080fd5b8035906020019184600183028401116401000000008311171561014157600080fd5b91908080601f016020809104026020016040519081016040528093929190818152602001838380828437600081840152601f19601f820116905080830192505050505050509192919290803590602001906401000000008111156101a457600080fd5b8201836020820111156101b657600080fd5b803590602001918460018302840111640100000000831117156101d857600080fd5b91908080601f016020809104026020016040519081016040528093929190818152602001838380828437600081840152601f19601f8201169050808301925050505050505091929192908035906020019064010000000081111561023b57600080fd5b82018360208201111561024d57600080fd5b8035906020019184600183028401116401000000008311171561026f57600080fd5b91908080601f016020809104026020016040519081016040528093929190818152602001838380828437600081840152601f19601f820116905080830192505050505050509192919290505050610793565b005b3480156102cf57600080fd5b506102fc600480360360208110156102e657600080fd5b81019080803590602001909291905050506109fb565b6040518086815260200180602001806020018060200185151515158152602001848103845288818151815260200191508051906020019080838360005b83811015610354578082015181840152602081019050610339565b50505050905090810190601f1680156103815780820380516001836020036101000a031916815260200191505b50848103835287818151815260200191508051906020019080838360005b838110156103ba57808201518184015260208101905061039f565b50505050905090810190601f1680156103e75780820380516001836020036101000a031916815260200191505b50848103825286818151815260200191508051906020019080838360005b83811015610420578082015181840152602081019050610405565b50505050905090810190601f16801561044d5780820380516001836020036101000a031916815260200191505b509850505050505050505060405180910390f35b610469610c06565b6001600083815260200190815260200160002060a0604051908101604052908160008201548152602001600182018054600181600116156101000203166002900480601f01602080910402602001604051908101604052809291908181526020018280546001816001161561010002031660029004801561052b5780601f106105005761010080835404028352916020019161052b565b820191906000526020600020905b81548152906001019060200180831161050e57829003601f168201915b50505050508152602001600282018054600181600116156101000203166002900480601f0160208091040260200160405190810160405280929190818152602001828054600181600116156101000203166002900480156105cd5780601f106105a2576101008083540402835291602001916105cd565b820191906000526020600020905b8154815290600101906020018083116105b057829003601f168201915b50505050508152602001600382018054600181600116156101000203166002900480601f01602080910402602001604051908101604052809291908181526020018280546001816001161561010002031660029004801561066f5780601f106106445761010080835404028352916020019161066f565b820191906000526020600020905b81548152906001019060200180831161065257829003601f168201915b505050505081526020016004820160009054906101000a900460ff161515151581525050905080608001511581608001901515908115158152505080600160008481526020019081526020016000206000820151816000015560208201518160010190805190602001906106e4929190610c38565b506040820151816002019080519060200190610701929190610c38565b50606082015181600301908051906020019061071e929190610c38565b5060808201518160040160006101000a81548160ff0219169083151502179055509050507f676f8a0f5b322c2e0c3fb0db51a5fe52c27bbe84724b83e68acb5c0280e1683182826080015160405180838152602001821515151581526020019250505060405180910390a15050565b60005481565b600080815480929190600101919050555060a060405190810160405280600054815260200184815260200183815260200182815260200160001515815250600160008054815260200190815260200160002060008201518160000155602082015181600101908051906020019061080b929190610c38565b506040820151816002019080519060200190610828929190610c38565b506060820151816003019080519060200190610845929190610c38565b5060808201518160040160006101000a81548160ff0219169083151502179055509050507fe508fabf6d689979143d8d68822a24121c6478be7fed805046e09d1c38a5038260005484848460006040518086815260200180602001806020018060200185151515158152602001848103845288818151815260200191508051906020019080838360005b838110156108ea5780820151818401526020810190506108cf565b50505050905090810190601f1680156109175780820380516001836020036101000a031916815260200191505b50848103835287818151815260200191508051906020019080838360005b83811015610950578082015181840152602081019050610935565b50505050905090810190601f16801561097d5780820380516001836020036101000a031916815260200191505b50848103825286818151815260200191508051906020019080838360005b838110156109b657808201518184015260208101905061099b565b50505050905090810190601f1680156109e35780820380516001836020036101000a031916815260200191505b509850505050505050505060405180910390a1505050565b6001602052806000526040600020600091509050806000015490806001018054600181600116156101000203166002900480601f016020809104026020016040519081016040528092919081815260200182805460018160011615610100020316600290048015610aad5780601f10610a8257610100808354040283529160200191610aad565b820191906000526020600020905b815481529060010190602001808311610a9057829003601f168201915b505050505090806002018054600181600116156101000203166002900480601f016020809104026020016040519081016040528092919081815260200182805460018160011615610100020316600290048015610b4b5780601f10610b2057610100808354040283529160200191610b4b565b820191906000526020600020905b815481529060010190602001808311610b2e57829003601f168201915b505050505090806003018054600181600116156101000203166002900480601f016020809104026020016040519081016040528092919081815260200182805460018160011615610100020316600290048015610be95780601f10610bbe57610100808354040283529160200191610be9565b820191906000526020600020905b815481529060010190602001808311610bcc57829003601f168201915b5050505050908060040160009054906101000a900460ff16905085565b60a060405190810160405280600081526020016060815260200160608152602001606081526020016000151581525090565b828054600181600116156101000203166002900490600052602060002090601f016020900481019282601f10610c7957805160ff1916838001178555610ca7565b82800160010185558215610ca7579182015b82811115610ca6578251825591602001919060010190610c8b565b5b509050610cb49190610cb8565b5090565b610cda91905b80821115610cd6576000816000905550600101610cbe565b5090565b9056fea165627a7a7230582016d980402d0053a9bc4c0f7e714f80518e3e06b308563284d9509ad9de0d6aee0029",
  "source": "pragma solidity ^0.5.0;\n\ncontract freight {\n    uint public deliveryCount = 0;\n\n    struct Order {\n        uint id;\n        string name;\n        string Address;\n        string number;\n        bool completed;\n    }\n\n    mapping(uint => Order) public orders;\n\n    event orderCreated(\n        uint id,\n        string name,\n        string Address,\n        string number,\n        bool completed\n    );\n\n    event orderCompleted(\n         uint id,\n         bool completed\n    );\n\n    function AddOrders(string memory _name, string memory _address, string memory _number) public {\n        deliveryCount++;\n        orders[deliveryCount] = Order(deliveryCount,_name,_address,_number,false);\n        emit orderCreated(deliveryCount,_name,_address,_number,false);\n    }\n\n    constructor() public {\n        AddOrders(\"deakin University is....\", \"221 Burwood Hwy, Burwood VIC 3125\",\"(03) 9244 6100\");\n    }\n\n    function toggleCompleted(uint _id) public {\n        Order memory _order = orders[_id];\n        _order.completed = !_order.completed;\n        orders[_id] =  _order;\n        emit orderCompleted(_id, _order.completed);\n    }\n}",
  "sourcePath": "/Users/jaskiratsingh/Documents/Deakin/T2/HD Task/contracts/Freight.sol",
  "compiler": {
    "name": "solc",
    "version": "0.5.0+commit.1d4f565a.Emscripten.clang"
  },
  "schemaVersion": "3.0.1",
  "updatedAt": "2023-09-27T06:42:02.813Z",
  "devdoc": {
    "methods": {}
  },
  "userdoc": {
    "methods": {}
  }
}